:020000040800F2
:100000007807002065020008C90D0008770D000878
:10001000C50D00089D0300088D10000800000000B9
:10002000000000000000000000000000AD0100081A
:10003000A10300080000000001020008050E0008EE
:100040007F0200087F0200087F0200087F0200088C
:100050007F0200087F0200087F0200087F0200087C
:100060007F0200087F0200087F0200087F0200086C
:100070007F0200087F0200087F0200087F0200085C
:100080007F0200087F0200087F02000800000000D5
:100090000000000000000000000000007F020008D7
:1000A0007F0200087F0200087F0200087F0200082C
:1000B0007F0200087F0200087F0200087F0200081C
:1000C0007F0200087F0200087F0200087F0200080C
:1000D0007F0200087D1000087F0200080000000079
:1000E0007F0200087F0200087F0200080000000075
:1000F0000000000000000000000000007F02000877
:10010000000000007F0200087F0200087F02000854
:1001100000000000000000000000000000000000DF
:100120007F0200087F0200087F0200087F020008AB
:100130007F02000800000000000000000000000036
:100140000000000000000000000000007F02000826
:100150007F0200087F0200087F0200087F0200087B
:100160007F0200087F02000800000000000000007D
:10017000000000000000000000000000000000007F
:10018000000000007F0200080000000000000000E6
:100190007F0200087F020008DFF80CD000F0ECF8C6
:1001A00000480047A5120008780700202A4B19686C
:1001B0000868B0E8F04F80F30988BFF36F8F4FF005
:1001C000000080F3118870470000000006480068B6
:1001D000006880F3088862B661B6BFF34F8FBFF343
:1001E0006F8F00DF00BF00BF08ED00E0DFF80C00FC
:1001F000016841F470010160704700BF88ED00E0C4
:10020000EFF30980BFF36F8F134B1A681EF0100FC6
:1002100008BF20ED108A20E9F04F106008B44FF0BD
:10022000500080F31188BFF34F8FBFF36F8F01F041
:1002300041F84FF0000080F3118808BC1968086885
:10024000B0E8F04F1EF0100F08BFB0EC108A80F33A
:100250000988BFF36F8F704714000020EFF305800B
:10026000704700000648804706480047FEE7FEE763
:10027000FEE7FEE7FEE7FEE7FEE7FEE7FEE7FEE756
:10028000C10E0008990100082DE9F05F0546002025
:1002900092469B4688460646814640241BE02846F7
:1002A00041464746224600F057F853465A46C01A80
:1002B000914110D311461846224600F03EF82D1AFF
:1002C00067EB01084F4622460120002100F035F877
:1002D00017EB00094E41201EA4F10104DFDC484663
:1002E00031462A464346BDE8F09FD2B201E000F80D
:1002F000012B491EFBD270470022F6E710B51346CA
:100300000A4604461946FFF7F0FF204610BD30B5F7
:100310000B46014600202022012409E021FA02F5C3
:100320009D4205D303FA02F5491B04FA02F528445D
:10033000151EA2F10102F1DC30BD202A04DB203AB7
:1003400000FA02F1002070479140C2F1200320FA28
:1003500003F3194390407047202A04DB203A21FA26
:1003600002F00021704721FA02F3D040C2F12002CE
:100370009140084319467047064C074D06E0E06877
:1003800040F0010394E8070098471034AC42F6D3DC
:10039000FFF706FF741300089413000800BFFEE780
:1003A00070477047014691F83500022803D080203D
:1003B000486501207047052081F83500086800680D
:1003C00020F001000A6810600020F3E7014800688F
:1003D00070470000000000200348006803490978C6
:1003E0000844014908607047000000200800002010
:1003F00010B50D48006840F400700B4908600846CD
:10040000006840F4806008600846006840F480702E
:100410000860032000F092F8002000F007F800F0D8
:100420002BF8002010BD0000003C024070B50446CF
:100430000E4800784FF47A71B1FBF0F00C4909686E
:10044000B1FBF0F5284600F0C9FB08B1012070BDF2
:10045000102C07D200222146501E00F031F805482A
:10046000046001E00120F2E70020F0E7080000202E
:100470000C0000200400002008B500BF0020009000
:100480000E48006840F480400C4908600846006847
:1004900000F48040009000BF00BF00BF002000902B
:1004A000081F006840F08050091F08600846006877
:1004B00000F08050009000BF00BF08BD44380240EB
:1004C0002DE9F05F80460D461646002700F07EFCC1
:1004D000074639462A46334601F00700C0F1070AAD
:1004E000BAF1040F02D94FF0040A01E0C0F1070A83
:1004F000D14600F1040ABAF1070F02D24FF0000A08
:1005000001E0A0F1030AD4464FF0010A0AFA09FA01
:10051000AAF1010A0AEA020A0AFA0CFA4FF0010BE0
:100520000BFA0CFBABF1010B0BEA030B4AEA0B04D1
:100530002146404600F052FCBDE8F09F00BF00F0AD
:100540000702064B19684FF6FF031940044B0B4393
:1005500043EA0221014B196000BF70470CED00E037
:100560000000FA0570B504460D460CB9012070BDB7
:100570005848006800F00F00A84209D255490D7094
:100580000846006800F00F00A84201D00120EEE705
:10059000207800F0020002281DD1207800F004002D
:1005A000042805D14C48006840F4E0504A490860EE
:1005B000207800F00800082805D14748006840F47A
:1005C0006040454908604448006820F0F000A16898
:1005D000084341490860207800F00100A8B3606832
:1005E000012807D13C4808380068C0F34040B8B93A
:1005F0000120BCE76068022802D06068032807D1A8
:10060000354808380068C0F3406048B90120AEE7BB
:10061000314808380068C0F3400008B90120A6E757
:100620002D48006820F00300616808432A490860EB
:10063000FFF7CCFE064609E0FFF7C8FE801B41F23B
:100640008831884202D9032091E707E022480068F8
:1006500000F00C006168B0EB810FEDD11D4800681F
:1006600000F00F00A84209D91A490D700846006829
:1006700000F00F00A84201D0012078E7207800F0B8
:100680000400042807D11448006820F4E050E16811
:10069000084311490860207800F00800082808D1B4
:1006A0000D48006820F46040216940EAC1000A4911
:1006B000086000F017F808490968C1F30311074AF8
:1006C000515CC840064908600020FFF7AFFE0020DB
:1006D0004DE70000003C0240083802405C1300086F
:1006E0000C0000202DE9F047002400250026A1463B
:1006F0002548006800F00C0020B1042805D0082827
:100700003AD105E0DFF8849039E0DFF8849036E0F4
:100710001D48001F006800F03F041B48001F0068D0
:1007200000F4800078B11A481749091F0968C1F31D
:100730008811A0FB01700146224600233846FFF7CE
:10074000A3FD05460EE011480F49091F0968C1F3D2
:100750008811A0FB01700146224600233846FFF7AE
:1007600093FD05460848001F0068C0F30140401C87
:100770004600B5FBF6F902E0DFF8109000BF00BFBD
:100780004846BDE8F0870000083802400024F40025
:1007900040787D01F8B504460CB90120F8BD2078F9
:1007A00000F00100002874D0F948006800F00C0047
:1007B00004280DD0F648006800F00C00082813D17A
:1007C000F348001F006800F48000B0F5800F0BD1E3
:1007D000EF4808380068C0F34040002859D06068EE
:1007E000002856D10120D9E700BF6068B0F5803FEE
:1007F00008D1E7480838006840F48030E4490839F7
:1008000008601EE06068B0F5A02F0DD1E048083800
:10081000006840F48020DE49083908600846006816
:1008200040F4803008600CE0D9480838006820F4B3
:100830008030D749083908600846006820F48020D5
:10084000086000BF606890B1FFF7C0FD054606E094
:10085000FFF7BCFD401B642801D903209EE7CC486C
:1008600008380068C0F340400028F1D011E0FFF7DD
:10087000ADFD054606E0FFF7A9FD401B642801D940
:1008800003208BE7C24808380068C0F340400028C6
:10089000F1D1207800F0020002285FD1BC48006846
:1008A00000F00C0058B1BA48006800F00C000828AD
:1008B0001CD1B748001F006800F48000B0B9B448EC
:1008C00008380068C0F3400020B1E068012801D07A
:1008D000012063E7AE480838006820F0F80021697D
:1008E00040EAC100AA490839086037E0E06800B36F
:1008F0000120A8490860FFF769FD054606E0FFF7FB
:1009000065FD401B022801D9032047E7A0480838AD
:100910000068C0F340000028F1D09D480838006806
:1009200020F0F800216940EAC100994908390860BF
:1009300014E0002097490860FFF748FD054606E0EF
:10094000FFF744FD401B022801D9032026E7904809
:1009500008380068C0F340000028F1D1207800F08A
:10096000080008282CD16069A8B101208A490860D4
:10097000FFF72CFD054606E0FFF728FD401B022887
:1009800001D903200AE782486C300068C0F34000B8
:100990000028F1D014E000207F490860FFF716FD21
:1009A000054606E0FFF712FD401B022801D903208F
:1009B000F4E677486C300068C0F340000028F1D1BD
:1009C000207800F00400042870D1002670483830E8
:1009D000006800F0805090B900BF002000906C4883
:1009E0003830006840F08050694938310860084666
:1009F000006800F08050009000BF00BF01266748EB
:100A0000006800F48070B0B96448006840F48070F9
:100A100062490860FFF7DAFC054606E0FFF7D6FCFE
:100A2000401B022801D90320B8E65C48006800F4A6
:100A300080700028F2D000BFA068012808D1544877
:100A40006830006840F001005149683108601DE0DD
:100A5000A06805280DD14E486830006840F00400B9
:100A60004B49683108600846006840F001000860A2
:100A70000CE047486830006820F0010044496831C4
:100A800008600846006820F00400086000BFA06805
:100A9000A8B1FFF79BFC054609E0FFF797FC401B58
:100AA00041F28831884202D9032077E626E03848AF
:100AB00068300068C0F340000028EED013E0FFF774
:100AC00085FC054608E0FFF781FC401B41F28831B8
:100AD000884201D9032061E62D4868300068C0F3E0
:100AE00040000028EFD1012E07D129483830006896
:100AF00020F0805026493831086000BFA069B8B3A3
:100B00002348006800F00C0008285ED0A069022885
:100B100046D100201F490866FFF758FC054606E04D
:100B2000FFF754FC401B022801D9032036E6184881
:100B300008380068C0F340600028F1D1D4E907010B
:100B40000843616A40EA81110122A06AC2EB5000A9
:100B500041EA00412C20005D41EA00600C49091F78
:100B6000086001200B490866FFF730FC054607E0E6
:100B70002DE0FFF72BFC401B022801D903200DE6D6
:100B8000034808380068C0F340600028F1D01EE038
:100B90000838024000004742800E47420070004083
:100BA00000200C490866FFF711FC054606E0FFF738
:100BB0000DFC401B022801D90320EFE50648006820
:100BC000C0F340600028F2D101E00120E6E50020FA
:100BD000E4E50000000047420038024070B50446DA
:100BE0002546681EB0F1807F01D301200FE0681E0A
:100BF0004FF0E02148610F214FF0FF3000F0EEF898
:100C000000204FF0E021886107200861002070BDBE
:100C1000704700002DE9F047044620680568206809
:100C2000C668206847694FF00008C14605F00F0804
:100C3000B8F1000F0AD105F0200038B106F020000D
:100C400020B1204600F098F9BDE8F087B8F1000F18
:100C50006DD007F0010018B906F49070002866D036
:100C600005F0010030B106F4807018B1E06B40F07F
:100C70000100E06305F0040030B107F0010018B195
:100C8000E06B40F00200E06305F0020030B107F0D5
:100C9000010018B1E06B40F00400E06305F00800CB
:100CA00030B107F0010018B1E06B40F00800E063DC
:100CB000E06B68B305F0200028B106F0200010B109
:100CC000204600F059F920684069C0F38019E06BB4
:100CD00000F0080010B9B9F1000F22D0204600F052
:100CE0002BF92068406900F04000B0B120684069ED
:100CF00020F0400021684861606B50B11748616B7B
:100D00000865606BFFF74EFB10B1606B016D8847A3
:100D10000CE02046FFF77CFF08E02046FFF778FF55
:100D200004E02046FFF774FF0020E0638CE705F045
:100D3000800030B106F0800018B1204600F069F95B
:100D400082E705F0400030B106F0400018B12046BF
:100D500000F002F978E700BF76E70000250F0008F1
:100D6000034B02689A4202D1826A12F8011C704752
:100D700000100140704700BFFEE7000008B500BF4B
:100D8000002000900E48006840F001000C49086007
:100D90000846006800F00100009000BF00BF00BFDF
:100DA000002000900846006840F0020008600846F5
:100DB000006800F00200009000BF00BF08BD000006
:100DC0003038024000BFFEE770470000024800686C
:100DD000C0F30220704700000CED00E010B50028C1
:100DE00007DA0A07140E054A00F00F031B1FD4543C
:100DF00003E00A07130E024A135410BD18ED00E079
:100E000000E400E010B5FFF7E7FA10BD00B593B0BD
:100E1000302107A8FFF770FA142102A8FFF76CFA37
:100E200000BF002001902448006840F08050224913
:100E300008600846006800F08050019000BF00BFC5
:100E400000BF002001901D48006840F440401B494D
:100E500008600846006800F44040019000BF00BFF1
:100E60000220079001200A9010200B9002200D9084
:100E700000210E9110210F91C0211091022111919A
:100E80000421129107A8FFF785FC08B1FFF789FA42
:100E90000F20029002200390002004904FF4805015
:100EA000059000200690032102A8FFF75BFB08B124
:100EB000FFF777FA13B000BD4038024000700040E1
:100EC0001448006840F47000124908601248006835
:100ED00040F001001049086000200F490831086007
:100EE0000D4800680D4908400B4908600C48091D71
:100EF0000860081F006820F48020091F0860002097
:100F000005490C3108604FF00060024980390860E3
:100F10007047000088ED00E000380240FFFFF6FE59
:100F20001030002470B50546AC6B0020E085E084ED
:100F30002046FFF76DFE70BD0168C96821F490710D
:100F40000268D1600168496921F0010102685161BC
:100F5000202180F83A10704710B504462068C06818
:100F600020F040002168C860202084F83900204625
:100F7000FFF700FF002010BD70B5044694F83A005A
:100F8000222844D1A068B0F5805F13D1A56A2069FA
:100F900040B920684068C0F308002880A06A801C1F
:100FA000A06219E020684068C0B22880A06A401C96
:100FB000A06211E0206938B920684068C1B2A26A15
:100FC000501CA062117007E02068406800F07F01AB
:100FD000A26A501CA0621170E08D401E80B2E085B4
:100FE00098B92068C06820F490702168C8602068B3
:100FF000406920F0010021684861202084F83A000F
:101000002046FFF7ADFE002070BD0020FCE7022067
:10101000FAE7014691F8390021282CD18868B0F50B
:10102000805F0FD10A6A1088C0F308000B6858600F
:10103000086918B9086A801C086209E0086A401C3F
:10104000086205E00B6A581C086218780B68586043
:10105000C88C401E80B2C88458B90868C06820F0A7
:1010600080000B68D8600868C06840F040000B68DA
:10107000D860002070470220FCE7000010B502484D
:10108000FFF7C8FD10BD00005000002000BFFEE7C4
:101090000FB4054B10B503A9044A029800F018F8E4
:1010A00010BC5DF814FB000089120008100000203D
:1010B00002E008C8121F08C1002AFAD17047704721
:1010C000002001E001C1121F002AFBD1704700007F
:1010D0002DE9FF4F8BB09A460F460546002606E0E5
:1010E00025280BD052460D9990476D1C761C287808
:1010F0000028F5D10FB03046BDE8F08F0024A0469F
:101100000122604900E0044315F8013F203B02FA48
:1011100003F00842F7D128782E2817D115F8010FCF
:1011200044F004042A280ED06FF02F022878A0F192
:10113000300109290AD808EB880102EB410100EBD4
:1011400001086D1CF2E757F8048B6D1C287869289C
:101150003ED006DC0028CDD063280BD0642804D113
:1011600036E0732810D075284BD052460D99904721
:10117000761C85E017F8040B8DF8000000208DF830
:101180000100E946012003E057F8049B4FF0FF30CF
:1011900061074FF0000401D40AE0641C44450DDAF5
:1011A0008442FADB19F804100029F6D106E0641C29
:1011B0008442FCDB19F804100029F8D1264404E02D
:1011C00019F8010B52460D999047641EF8D257E06A
:1011D00001CF4FF00A0B002802DA40422D2102E035
:1011E000210504D52B218DF82410012103E0E1070E
:1011F00005D02021F7E70DF1200908910CE000212E
:10120000F9E701CF4FF00A0BF9E75946FFF77FF8EE
:1012100001F1300209F8012D0028F6D1ADEB0900EB
:1012200000F1200B600701D44FF00108D84502DD22
:10123000A8EB0B0000E000208046002406E009A88F
:101240005246005D0D999047641C761C08988442B4
:10125000F5DB04E0302052460D999047761CB8F13A
:101260000001A8F10108F5DC05E019F8010B524670
:101270000D999047761CBBF10001ABF1010BF4DC3A
:101280006D1C34E70928010000BF054A126802F00E
:101290004002002AF9D0C2B2014B5A6070470000E8
:1012A00000100140FFF7A4F8FFF7B0FDFFF766FD5F
:1012B00000BFFEE710B51B48006818B101201A49AD
:1012C00008602DE000201849086018480068B0FA4E
:1012D00080F0C0F11F0404EB8400154951F8200090
:1012E00008B1012000E0002028B940F6F62211A143
:1012F00015A0FFF7CDFE04EB84010D4A02EB81003F
:1013000041684968416000F1080142688A4202D19F
:101310004168496841604168C9680F4A116000BF6F
:1013200010BD00004C000020380000202C000020E0
:10133000900000202E2E5C4672656552544F535C1F
:101340007461736B732E63004572726F723A25730A
:101350002C25640D0A00000014000020000000008D
:101360000000000001020304060708090000000055
:101370000102030494130008000000205000000044
:10138000B0100008E41300085000002028070000F7
:10139000C010000800000000100000000100000064
:1013A0000024F40000000000000000000000000025
:1013B000000000000000000000000000000000002D
:1013C000000000000000000000000000000000001D
:1013D000000000000000000000000000000000000D
:0413E0000000000009
:040000050800019955
:00000001FF
